S010000041746D65676138412E737265634C
S113000012C02CC02BC02AC029C028C027C026C0BB
S113001025C024C0FEC022C021C020C01FC01EC0F5
S11300201DC01CC01BC011241FBECFE5D4E0DEBF21
S1130030CDBF10E0A0E6B0E0EEEEF4E002C0059023
S11300400D92AA37B107D9F720E0AAE7B0E001C0C2
S11300501D92A738B207E1F736D147C2D1CFCF936B
S1130060DF93EBE7F0E025EA2083ACE7B0E09C9374
S1130070CDE7D0E0888388812C91908182278927DD
S113008080937E00DF91CF91089595B3937C95BBC7
S113009080FDAA9A81FDAB9A82FDAC9A83FDAD9A4C
S11300A0A99A82E08A95F1F700C0A99887EC90E0BC
S11300B00197F1F700C000000895CF93C82F66237D
S11300C011F0A89A01C0A8988C2F82958F70DDDF5B
S11300D08C2F8F70DADF85E88A95F1F70000CF91D5
S11300E00895CF93DF93EC018881882331F0219622
S11300F061E0E3DF89918111FBCFDF91CF91089516
S1130100CF93C82F60E0D9DFC150C23030F48FE9FB
S11301109FE00197F1F700C00000CF910895CF93BD
S1130120DF9360E070E0A1E0B0E082B38F6082BB57
S113013022B3EB01CD01062E02C0880F991F0A9449
S1130140E2F78095822382BB8DE08A95F1F7000067
S1130150849B0FC0CD0120B3FC0130E0AC014C5FA7
S11301605F4F02C0359527954A95E2F720FD0DC0F3
S113017002C0E0E0F0E0CC0FDD1FCC0FDD1FEC0F80
S1130180FD1FE659FF4F80810AC001968430910516
S113019011F76F5F7F4F6430710539F680E0DF91AE
S11301A0CF9108950F931F93CF93DF9300D000D086
S11301B000D0CDB7DEB78C014AE0BE016F5F7F4F40
S11301C061D1CE0101968DDF003187E2180718F462
S11301D061E080E272DF083E83E0180718F461E012
S11301E080E26BDF0436110518F461E080E265DF1C
S11301F00A30110518F461E080E25FDF26960FB63D
S1130200F894DEBF0FBECDBFDF91CF911F910F9148
S113021008951F920F920FB60F9211242F933F93BC
S11302204F935F936F937F938F939F93AF93BF93FA
S1130230EF93FF938FB1E0917A00F0E0E158FF4F24
S1130240808380917A008F5F80937A0080917A0016
S1130250843008F110927A0080917F00853AB1F4DD
S113026090918200809181003091800020917F00E4
S11302708327822798130AC02091800080918100EF
S113028090E0922B9093840080938300809185006A
S113029090918600E4DEE0917A00F0E0E558FF4FAB
S11302A080818FB9FF91EF91BF91AF919F918F9111
S11302B07F916F915F914F913F912F910F900FBE5E
S11302C00F901F90189584B38F6384BB85B38C7F84
S11302D085BB2FEF89EF90E0215080409040E1F7FB
S11302E000C0000083E0D1DE8FE097E20197F1F7D0
S11302F000C0000083E0C9DE8BE291E00197F1F7D2
S113030000C0000083E0C1DE82E0BFDE88E2F8DEE8
S11303108CE0F6DE86E0F4DE81E0F2DE8FE081BB85
S11303208FEF82BB87B3837D87BBBC9AC29A80E080
S113033090E095DE10927A0080917B008FB980EC7A
S11303408DB9789480E8DCDE80E690E0CADE80EC4B
S1130350D7DE85E690E0C5DEF12C00E010E0C12C8C
S1130360D12CE12CDCDEC82F882309F460C08FE394
S11303709CE90197F1F700C00000D1DEC81357C013
S113038006C08FE097E20197F1F700C00000C7DED6
S11303908111F7CF65C093E09F1508F448C0980118
S11303A0220F331F000F111F000F111F000F111F09
S11303B0020F131F0C0F111D00531109F39437C0C2
S11303C0CA3271F1C13479F49801ADECBCEC4ED071
S11303D08C01169507951695079516950795FF2098
S11303E031F1FA9424C0C23439F40F3027E21207F1
S11303F0F0F40F5F1F4F1BC0C33431F40115110516
S1130400B1F00150110913C0C43471F0C33279F44E
S11304108FB7F89410938600009385008FBF07C0B0
S1130420FC2C0D2D1E2D03C0FC2C0D2D1E2D8FB765
S1130430F894C0918300D09184008FBF85E860DE7A
S1130440C801B0DE85EC5CDECE01ACDE8FE798E35C
S113045021E0815090402040E1F700C0000082CFAD
S113046080ED8C0F8A3008F496CFAACFA29FB001FA
S1130470B39FC001A39F01D0B29F700D811D1124B1
S1130480911D0895BB274A3031F4992322F4BDE22B
S1130490909581959F4F01C0BB27FB015527AA2743
S11304A0880F991FAA1FA41710F0A41B83955051FD
S11304B0B9F7A05DAA3308F0A95DA193009779F775
S11304C0B111B1931192CB0100C0DC01FC01672F83
S11304D071917723E1F7329704C07C916D93708317
S11104E06291AE17BF07C8F30895F894FFCFDA
S11304EE4D38203A004D31363A00313233413435ED
S10D04FE3642373839432A302344CC
S9030000FC
