S010000041746D65676138412E737265634C
S113000012C02CC02BC02AC029C028C027C026C0BB
S113001025C024C0F7C022C021C020C01FC01EC0FC
S11300201DC01CC01BC011241FBECFE5D4E0DEBF21
S1130030CDBF10E0A0E6B0E0E2EEF4E002C005902F
S11300400D92AA37B107D9F720E0AAE7B0E001C0C2
S11300501D92A738B207E1F733D141C2D1CFCF9374
S1130060DF93EBE7F0E025EA2083ACE7B0E09C9374
S1130070CDE7D0E0888388812C91908182278927DD
S113008080937E00DF91CF91089595B3937C95BBC7
S113009080FDAA9A81FDAB9A82FDAC9A83FDAD9A4C
S11300A0A99A82E08A95F1F700C0A99887EC90E0BC
S11300B00197F1F700C000000895CF93C82F66237D
S11300C011F0A89A01C0A8988C2F82958F70DDDF5B
S11300D08C2F8F70DADF85E88A95F1F70000CF91D5
S11300E00895CF93DF93EC018881882331F0219622
S11300F061E0E3DF89918111FBCFDF91CF91089516
S1130100CF93C82F60E0D9DFC150C23030F48FE9FB
S11301109FE00197F1F700C00000CF910895CF93BD
S1130120DF9360E070E0A1E0B0E082B38F6082BB57
S113013022B3EB01CD01062E02C0880F991F0A9449
S1130140E2F78095822382BB8DE08A95F1F7000067
S1130150849B0FC0CD0120B3FC0130E0AC014C5FA7
S11301605F4F02C0359527954A95E2F720FD0DC0F3
S113017002C0E0E0F0E0CC0FDD1FCC0FDD1FEC0F80
S1130180FD1FE659FF4F80810AC001968430910516
S113019011F76F5F7F4F6430710539F680E0DF91AE
S11301A0CF9108950F931F93CF93DF9300D000D086
S11301B000D0CDB7DEB78C014AE0BE016F5F7F4F40
S11301C05BD1CE0101968DDF083E83E0180718F459
S11301D061E080E272DF0436110518F461E080E228
S11301E06CDF0A30110518F461E080E266DF2696C0
S11301F00FB6F894DEBF0FBECDBFDF91CF911F9134
S11302000F9108951F920F920FB60F9211242F93FE
S11302103F934F935F936F937F938F939F93AF938A
S1130220BF93EF93FF938FB1E0917A00F0E0E15830
S1130230FF4F808380917A008F5F80937A00809152
S11302407A00843028F12091810030918000EFE71A
S1130250F0E090818081853A81F4809182002327A7
S1130260922789130AC0209180008091810090E038
S1130270922B9093840080938300809185009091C9
S11302808600EDDE10927A0080917B008FB907C062
S1130290E0917A00F0E0E558FF4F80818FB9FF913B
S11302A0EF91BF91AF919F918F917F916F915F91EA
S11302B04F913F912F910F900FBE0F901F90189563
S11302C084B38F6384BB85B38C7F85BB2FEF89EFA9
S11302D090E0215080409040E1F700C0000083E0AE
S11302E0D4DE8FE097E20197F1F700C0000083E0CD
S11302F0CCDE8BE291E00197F1F700C0000083E0CF
S1130300C4DE82E0C2DE88E2FBDE8CE0F9DE86E059
S1130310F7DE81E0F5DE8FE081BB8FEF82BB87B330
S1130320837D87BBBC9AC29A10927A0080E090E0E9
S113033096DE80917B008FB980EC8DB9789480E84B
S1130340DFDE80E690E0CDDE80ECDADE85E690E06C
S1130350C8DEF12C00E010E0C12CD12CE12CDFDE52
S1130360C82F882309F460C08FE39CE90197F1F753
S113037000C00000D4DEC81357C006C08FE097E267
S11303800197F1F700C00000CADE8111F7CF62C007
S113039093E09F1508F448C09801220F331F000F03
S11303A0111F000F111F000F111F020F131F0C0F3D
S11303B0111D00531109F39437C0CA3271F1C134CD
S11303C079F49801ADECBCEC4BD08C0116950795F3
S11303D01695079516950795FF2031F1FA9424C0D8
S11303E0C23439F40F3027E21207F0F40F5F1F4FC5
S11303F01BC0C33431F401151105B1F001501109CA
S113040013C0C43471F0C33279F48FB7F8941093E5
S11304108600009385008FBF07C0FC2C0D2D1E2D78
S113042003C0FC2C0D2D1E2D8FB7F894C0918300B2
S1130430D09184008FBF85E863DEC801B3DE85EC0C
S11304405FDECE01AFDE8FE39CE90197F1F700C0D8
S1130450000085CF80ED8C0F8A3008F499CFADCFA2
S1130460A29FB001B39FC001A39F01D0B29F700DA2
S1130470811D1124911D0895BB274A3031F499231D
S113048022F4BDE2909581959F4F01C0BB27FB01EB
S11304905527AA27880F991FAA1FA41710F0A41B79
S11304A083955051B9F7A05DAA3308F0A95DA193D3
S11304B0009779F7B111B1931192CB0100C0DC011F
S11304C0FC01672F71917723E1F7329704C07C9187
S11304D06D9370836291AE17BF07C8F30895F894C3
S10504E0FFCF48
S11304E24D38203A004D31363A00313233413435F9
S10D04F23642373839432A302344D8
S9030000FC
