S011000041746D6567613136412E737265631C
S11300000C942A000C943F000C943F000C943F0085
S11300100C943F000C943F000C943F000C943F0060
S11300200C943F000C943F000C943F000C943F0050
S11300300C943F000C943F000C943F000C943F0040
S11300400C943F000C943F000C943F000C943F0030
S11300500C943F0011241FBECFE5D4E0DEBFCDBF1A
S113006010E0A0E6B0E0ECEFF4E002C005900D92E1
S1130070AA37B107D9F70E9407010C947C020C94AB
S1130080000095B39F7095BB80FDAC9A81FDAD9A3D
S113009082FDAE9A83FDAF9AA99A82E08A95F1F720
S11300A000C0A99887EC90E00197F1F700C0000028
S11300B00895CF93C82F662311F0A89A01C0A89879
S11300C08C2F82958F700E9441008C2F8F700E941C
S11300D0410085E88A95F1F70000CF910895CF9308
S11300E0DF93EC018881882339F0219661E00E9436
S11300F0590089918111FACFDF91CF910895CF935F
S1130100C82F60E00E945900C150C23030F48FE91A
S11301109FE00197F1F700C00000CF910895CF93BD
S1130120DF9360E070E0A1E0B0E08BB38F608BBB45
S11301302BB3EB01CD01062E02C0880F991F0A9440
S1130140E2F7809582238BBB8DE08A95F1F700005E
S1130150CC9B0FC0CD0129B3FC0130E0AC014C5F56
S11301605F4F02C0359527954A95E2F720FD0DC0F3
S113017002C0E0E0F0E0CC0FDD1FCC0FDD1FEC0F80
S1130180FD1FE659FF4F80810AC001968430910516
S113019011F76F5F7F4F6430710539F680E0DF91AE
S11301A0CF9108950F931F93CF93DF9300D000D086
S11301B000D0CDB7DEB78C014AE0BE016F5F7F4F40
S11301C00E944702CE0101960E946F00083E83E020
S11301D0180720F461E080E20E94590004361105FA
S11301E020F461E080E20E9459000A30110520F4F5
S11301F061E080E20E94590026960FB6F894DEBFB3
S11302000FBECDBFDF91CF911F910F910895CF9372
S1130210DF93CDB7DEB728970FB6F894DEBF0FBED5
S1130220CDBF84B3836F84BB85B38C7F85BB2FEF35
S113023089EF90E0215080409040E1F700C0000039
S113024083E00E9441008FE097E20197F1F700C03C
S1130250000083E00E9441008BE291E00197F1F7F6
S113026000C0000083E00E94410082E00E9441003F
S113027088E20E947F008CE00E947F0086E00E945A
S11302807F0081E00E947F008FE08ABB8FEF8BBBF1
S113029087B3806B87BBBE98C49A83E58DB9709889
S11302A080E80E947F0080E690E00E946F0080EC6E
S11302B00E947F0085E690E00E946F00712CC12CA3
S11302C0D12C912CA12CE12CF12C412C512C612C02
S11302D00F2EF5EABF2EF02D0F2EFAE58F2EF02DFE
S11302E08E01075F1F4F0E948F00382E882309F468
S11302F069C08FE39CE90197F1F700C000000E94F8
S11303008F0038125FC006C08FE097E20197F1F7C3
S113031000C000000E948F008111F6CFA3C093E0BB
S1130320971508F44FC0C701880F991FEE0CFF1CE6
S1130330EE0CFF1CEE0CFF1CE80EF91EE30CF11C86
S113034020E3E21AF10873943DC08AE2381681F181
S113035091E4391210C09701ADECBCEC0E94380254
S11303607C01F694E794F694E794F694E794772066
S113037049F17A9427C022E4321209C08FE0E816CA
S113038087E2F806F8F49FEFE91AF90A1BC023E4A0
S1130390321207C0E114F104A9F081E0E81AF1086F
S11303A011C094E4391641F023E232120BC008C0A4
S11303B0742CE52CF62C06C0742CE52CF62C02C00B
S11303C09E2CAF2CBD82AE829F82892D8B258A25DF
S11303D08887C49885E38A95F1F700008FB8779BE6
S11303E0FECF8FB187EC90E00197F1F700C00000D9
S11303F0FE013596DE01119681918FB9779BFECF70
S11304008FB18D9395E89A95F1F70000E017F10705
S113041099F7C49A25E32A95F1F700002B819A8174
S11304208981853A49F4892F82278B253C813813A9
S113043003C0C22ED12CD92A85E80E947F00C701AF
S11304400E94D20085EC0E947F00C6010E94D20067
S11304508FE798E321E0815090402040E1F700C00D
S1130460000041CF80ED830D8A3008F458CF6DCF62
S1130470A29FB001B39FC001A39F700D811D1124E1
S1130480911DB29F700D811D1124911D0895BB27EC
S11304904A3031F4992322F4BDE2909581959F4F1F
S11304A00C945302BB27FB015527AA27880F991FD9
S11304B0AA1FA41710F0A41B83955051B9F7A05D8F
S11304C0AA3308F0A95DA193009779F7B111B1930C
S11304D01192CB010C946C02DC01FC01672F719129
S11304E07723E1F7329704C07C916D937083629116
S10F04F0AE17BF07C8F30895F894FFCFBF
S11304FC4D31363A004D38203A00313233413435DF
S10D050C3642373839432A302344BD
S9030000FC
